:020000040800F2
:10000000800A002039020008DB2000082D1C0008AF
:10001000D920000893040008C1280008000000004F
:10002000000000000000000000000000DF200008C9
:10003000BD04000800000000DD200008E1200008E9
:10004000530200085302000853020008530200083C
:10005000530200085302000853020008530200082C
:10006000530200085302000853020008530200081C
:10007000530200085302000853020008530200080C
:100080005302000853020008530200080000000059
:100090000000000000000000000000005302000803
:1000A000530200085302000853020008E921000827
:1000B000F52100085302000801220008530200083D
:1000C00053020008530200085302000853020008BC
:1000D0005302000853020008530200080000000009
:1000E00053020008530200085302000800000000F9
:1000F00000000000000000000000000053020008A3
:1001000000000000530200080D22000853020008FE
:1001100000000000000000000000000000000000DF
:10012000530200085302000853020008530200085B
:100130005302000800000000000000000000000062
:100140000000000000000000000000005302000852
:10015000530200085302000853020008B5280008A3
:1001600053020008530200080000000000000000D5
:10017000000000000000000000000000000000007F
:100180000000000053020008000000000000000012
:10019000530200085302000800F002F800F03CF897
:1001A0000AA090E8000C82448344AAF10107DA45D2
:1001B00001D100F031F8AFF2090EBAE80F0013F0E8
:1001C000010F18BFFB1A43F0010318472C2B000046
:1001D0004C2B0000103A24BF78C878C1FAD85207D7
:1001E00024BF30C830C144BF04680C6070470000B1
:1001F0000023002400250026103A28BF78C1FBD830
:10020000520728BF30C148BF0B6070471FB502F0CE
:1002100061FD1FBD10B510BD00F001F91146FFF7DB
:10022000F5FF02F075FB00F01FF903B4FFF7F2FFD2
:1002300003BC00F027F9000009488047094800473F
:10024000FEE7FEE7FEE7FEE7FEE7FEE7FEE7FEE786
:10025000FEE7FEE704480549054A064B70470000E3
:10026000D92100089901000880040020800A00209C
:10027000800600208006002053EA020C00F069800E
:100280002DE9F04B4FF00006002B1FBFB3FA83F5AA
:1002900003FA05F424FA05F65E4012BF1643B2FADB
:1002A00082F502FA05F4C5F120051EBF22FA05FC0D
:1002B00044EA0C04203556EA044C4FEA144418BFB3
:1002C000641C4FF000084FF00009904271EB030CE2
:1002D00039D3002919BFB1FA81F701FA07F6B0FA4C
:1002E00080F700FA07F6C7F120071EBF20FA07FCC7
:1002F00046EA0C062037B6FBF4FCA7EB0507103FD7
:1003000007F01F0BCBF120060CFA0BFB2CFA06F6BC
:1003100044BFB3460026202FA4BF5E464FF0000B1B
:100320005BEA060C08BF4FF0010B19EB0B09ABFBA6
:10033000027C48EB0608C01B06FB02CC0BFB03CC7F
:1003400071EB0C01C1E70B46024641464846BDE849
:10035000F08B13B54FF000004FF00001AFF30080B9
:10036000BDE81C40704710B5203AC0F00B80B1E8E2
:100370001850203AA0E81850B1E81850A0E81850DA
:10038000BFF4F5AF5FEA027C24BFB1E81850A0E8E3
:10039000185044BF18C918C0BDE810405FEA827CFD
:1003A00024BF51F8043B40F8043B08BF7047D20714
:1003B00028BF31F8023B48BF11F8012B28BF20F8B5
:1003C000023B48BF00F8012B70474FF0000200B518
:1003D000134694469646203922BFA0E80C50A0E868
:1003E0000C50B1F12001BFF4F7AF090728BFA0E816
:1003F0000C5048BF0CC05DF804EB890028BF40F8E2
:10040000042B08BF704748BF20F8022B11F0804F23
:1004100018BF00F8012B704770477047704775464A
:1004200000F02CF8AE4605006946534620F0070060
:10043000854618B020B5FFF70DFFBDE820404FF00E
:1004400000064FF000074FF000084FF0000B21F0BE
:100450000701AC46ACE8C009ACE8C009ACE8C0098B
:10046000ACE8C0098D46704710B50446AFF3008074
:100470002046BDE81040FFF7D8BE00000048704796
:100480001C04002001491820ABBEFEE72600020034
:100490007047FEE730B50468256825F4802525609F
:1004A000046863608368402B036803D09960006828
:1004B000C26030BD9A600068C16030BD70472DE9F0
:1004C000F0410446876D00F09DF9064694F835002A
:1004D0000025022806D08020606584F83450012071
:1004E000BDE8F0812068016821F0160101602068F4
:1004F000416921F080014161206C08B9A06C20B1F4
:100500002068016821F0080101602068016821F07D
:10051000010101600CE000F075F9801B052807D986
:1005200020206065032084F8350084F83450D7E734
:1005300020680068C007EED194F85C103F20884026
:10054000B860012084F8350084F834500020C7E7F3
:1005500090F83510022903D08021416501207047B1
:10056000052180F835100068016821F00101016063
:10057000002070472DE9F0410446866D90F8340064
:10058000002501280DD0012084F8340094F835703E
:100590000020012F07D084F8340002252846BDE84A
:1005A000F0810220FBE7022784F835706065204661
:1005B000FFF770FF94F85C103F208840B06020681F
:1005C000016841F016010160206C20B120680168CB
:1005D00041F0080101602068016841F001010160FB
:1005E000DCE7000070B5044600F00CF90546601C1D
:1005F00002D004480078044400F004F9401BA042F3
:10060000FAD370BD0C0000202DE9F84FDFF8B8A137
:100610000022012403254FF00F090AF1040BAAF16F
:10062000040E00BF0B6804FA02F63340B34273D1E4
:100630000F7907F00307012F01D0022F16D1876829
:100640004FEA420805FA08FC27EA0C07D1F80CC06B
:100650000CFA08FC4CEA070CC0F808C04768B7431E
:100660000E79C6F3001696403E4346600E79F64377
:10067000B6070DD0C768560005FA06FC27EA0C0736
:10068000D1F808C00CFA06FC4CEA070CC0F80CC004
:100690000E7906F00306022E10D1D60800EB86086C
:1006A000D8F8206057074FEAD76C09FA0CF7BE4319
:1006B0000F6907FA0CF73743C8F8207006684FEA4D
:1006C000420C05FA0CF7BE430F7907F0030707FA4F
:1006D0000CF7374307604E6816F4403F6DD03B4E31
:1006E000376847F480473760366822F0030706F41E
:1006F00080460096364E07EB060CDCF80868970734
:100700003F0F09FA07F826EA0806DFF8C8804045D7
:1007100003D14FF000081EE04FE0DFF8BC804045F9
:1007200002D14FF0010816E0DFF8B080404502D159
:100730004FF002080FE0DFF8A880404502D14FF0EB
:10074000030808E0DFF89C80404502D14FF0040820
:1007500001E04FF0070808FA07F848EA0608CCF865
:100760000888DAF800605746D1F804C09E435FEA73
:10077000CC2C00D51E433E60DBF800605F46D1F80C
:1007800004C09E435FEA8C2C00D51E433E60DEF819
:1007900000607746D1F804C09E435FEA8C3C00D5E8
:1007A0001E433E60084F083F3E68D1F804C09E4398
:1007B0005FEACC3C00D51E433E60521C102AFFF479
:1007C00031AFBDE8F88F0000083C014044380240DA
:1007D00000300140000002400004024000080240D6
:1007E000000C024000100240426921EA02030A4064
:1007F00043EA0241816170470AB18161704709048F
:10080000FBE7000001488068704700000C000020F2
:100810000248816802781144816070470C00002012
:100820000B4810B5016841F400710160016841F4A2
:1008300080610160016841F480710160032000F073
:100840006FF80F2000F006F800F024F8002010BD2B
:10085000003C024070B50D4D04464FF47A71287883
:10086000B1FBF0F00A490968B1FBF0F000F00CFBB5
:1008700048B9102C07D200222146501E00F030F853
:1008800000206C6070BD012070BD00000C000020D5
:10089000180000200A4808B5016841F48041016051
:1008A000006800F4804000900548001F016841F096
:1008B00080510160006800F08050009008BD000089
:1008C00044380240002809DB00F01F02012191405A
:1008D0004009800000F1E020C0F8001170470000DE
:1008E000F0B40E4B1B680C46C3F30223C3F107059B
:1008F000042D00D90425191D072901D2002300E089
:10090000DB1E012606FA05F1491E214099409E4052
:10091000761E16403143F0BC01F0D3BF0CED00E071
:10092000064900F0070208684FF6FF03184040EA46
:100930000220034A10430860704700000CED00E0FD
:100940000000FA052DE9F0470E46050065D0DFF8F6
:100950001481D8F80000F7B200F00700B04207D2C7
:1009600088F80070D8F8000000F00700B04254D1B9
:1009700028683D4C810712D5400703D5206840F414
:10098000E05020602878000703D5206840F46040DC
:1009900020602068A96820F0F000084320602878D3
:1009A000C0072DD0304968680839012812D00228C4
:1009B00013D0032811D00968890700292DDA21688E
:1009C00021F0030101432160FFF71CFF814641F242
:1009D000883A0EE009688903EFE709688901ECE7C6
:1009E000FFF710FFA0EB0901514502D90320BDE834
:1009F000F0872068696800F00C00B0EB810FEFD140
:100A0000D8F80010404601F00701B14207D907703D
:100A1000006800F00700B04201D00120E7E7287825
:100A2000400705D52068E96820F4E05008432060BD
:100A30002878000706D52068296920F4604040EA3C
:100A4000C100206000F038F82168084AC1F30311A2
:100A5000515CC8400649086006480068FFF7FAFE86
:100A60000020C4E7003C024008380240DE2C0008A9
:100A7000180000201000002004480549006809689B
:100A8000044AC1F38221515CC8407047180000201D
:100A900008380240EE2C000804480549006809683F
:100AA000044AC1F34231515CC8407047180000202D
:100AB00008380240EE2C0008154810B5006810F008
:100AC0000C02144813D01449042A0FD0082A0ED15E
:100AD0000F4C241F2268236802F03F025B0207D5F7
:100AE0002068C0F38810A0FB010106E0084610BD95
:100AF0002168C1F38811A1FB00010023FFF7BCFBB3
:100B00002168C1F30141491C4900B0FBF1F010BD5F
:100B1000083802400024F40040787D012DE9F84FA8
:100B200004006ED02078DFF84C93C007A9F10405CB
:100B30004AD009F104000168C1F38101012908D0FC
:100B40000068C0F3810002280AD1D9F800004002F1
:100B500006D52868800337D560680028E1D033E0E7
:100B60006068B0F5803F10D0B0F5A02F286810D095
:100B700020F480302860286820F480202860606895
:100B8000A8B1FFF73FFE06460DE0286840F480302C
:100B9000F4E740F480202860F7E700BFFFF732FE5B
:100BA000801B642873D828688003F7D50CE0FFF712
:100BB00029FE064605E000BFFFF724FE801B6428DF
:100BC000F0D828688003F7D42078DFF8AC8280075B
:100BD0004FF0000A3ED5A748001D016811F00C0F28
:100BE00008D00068C0F3810002280BD1D9F80000BA
:100BF000400207D42868800716D5E068012800D194
:100C000012E033E1E068B8B10120C8F80000FFF756
:100C1000F9FD064605E000BFFFF7F4FD801B022842
:100C2000C0D828688007F7D52868216920F0F80027
:100C300040EAC10028600DE0C8F800A0FFF7E2FD1F
:100C4000064604E0FFF7DEFD801B02281FD8286857
:100C50008007F7D42078000722D5864F874861693E
:100C6000703771B101210160FFF7CCFD064604E049
:100C7000FFF7C8FD801B022809D838688007F7D520
:100C80000EE0C0F800A0FFF7BDFD064605E082E0DB
:100C9000FFF7B8FD801B02287DD838688007F7D49D
:100CA0002078400768D5DFF8CCB100270BF13C0B6A
:100CB000DBF80000C0000BD4DBF8001041F08051DD
:100CC000CBF80010DBF80000012700F08050009006
:100CD0006B4E3068C00510D4306840F480703060CE
:100CE000FFF790FD009005E0FFF78CFD0099401A9A
:100CF000022850D83068C005F6D55E4EA0686C3624
:100D000001280FD00528306810D020F00100306095
:100D1000306820F004003060A068B8B1FFF772FDC1
:100D200000900FE0306840F00100F4E740F004006C
:100D30003060F7E7FFF766FD0099411A41F288300D
:100D4000814266D830688007F4D50EE0FFF75AFD7F
:100D5000009007E0FFF756FD0099411A41F28830F4
:100D6000814256D830688007F4D42FB1DBF80010E8
:100D700021F08051CBF80010A069C8B33D49091D8E
:100D80000968C1F3810102294AD00228504607D0E0
:100D9000C8F8600000E03CE0FFF734FD04463BE0AB
:100DA0004746C8F86000FFF72DFD064605E000BF86
:100DB000FFF728FD801B02282BD828688001F7D474
:100DC000D4E907010843A16A2E4A490802EB014110
:100DD000626A41EA8211084394F82C1040EA0161EA
:100DE000C9F8001001203866FFF70CFD044606E044
:100DF0003EE000BFFFF706FD001B022809D8286867
:100E00008001F7D534E000BFFFF7FCFC001B02288F
:100E100002D90320BDE8F88F28688001F4D427E0C8
:100E20000128F7D0D9F80000E26900F4800191426E
:100E30001CD1226A00F03F01914217D147F6C071E0
:100E4000626A0140B1EB821F10D1A26A4FF0FF33FA
:100E500000F4403103EB5202B1EB024F06D194F89B
:100E60002C1000F07060B0EB016F01D00120D1E7D1
:100E70000020CFE70438024000004742800E47427E
:100E8000007000400000FFFF10B5401EB0F1807FF1
:100E900001D3012010BD4FF0E02460610F216017E5
:100EA00001F00FFD0020A06107202061002010BD8F
:100EB0007047704770B590F83C20012A2CD001246F
:100EC00080F83C40022280F83D2003685A689D6803
:100ED00022F070060A6832435A60104B02689A4248
:100EE0000ED0B2F1804F0BD00D4B9A4208D00D4B73
:100EF0009A4205D00C4B9A4202D00C4B9A4204D134
:100F0000496825F080031943916080F83D40002135
:100F100080F83C10084670BD022070BD0000014002
:100F20000004004000080040000C00400040014068
:100F300010B5040003D094F83D0010B107E0012083
:100F400010BD002084F83C00204600F01FF802206D
:100F500084F83D00211D206801F05EF9012084F82D
:100F6000460084F83E0084F83F0084F8400084F88E
:100F7000410084F8420084F8430084F8440084F877
:100F8000450084F83D00002010BD000008B5016850
:100F90001748814208D11748016841F002010160F9
:100FA000006800F002000BE01248134A001D914255
:100FB00008D1016841F480310160006800F480309C
:100FC000009008BD0D4A914207D1016841F40031FB
:100FD0000160006800F40030F2E7094A9142F0D164
:100FE000016841F480210160006800F48020E7E797
:100FF00000040040403802400040014000440140ED
:101000000048014070B5044690F83C0000250128D6
:1010100017D0012684F83C60022084F83D00206847
:10102000826822F0770222F47F42826008685028AA
:1010300038D00DDC20284FD005DC90B3102811D11A
:101040004AE0022070BD302846D040280AD13BE05B
:1010500060282FD070280DD0B0F5805F03D0B0F598
:10106000005F12D0012584F83D60002084F83C0028
:10107000284670BDCB68D1E90121206801F025F92F
:101080002068816841F0770109E0CB68D1E901214E
:10109000206801F01AF92068816841F4804181607C
:1010A000E1E719E0CA684968206801F0C3F95021F6
:1010B000206806E0CA684968206801F0CCF9602120
:1010C000206801F00CF9CEE7CA684968206801F091
:1010D000B1F940212068F4E7226801461046F0E7A4
:1010E0002DE9F0410D46040003D094F83D0018B1FD
:1010F00008E00120BDE8F081002084F83C00204693
:1011000000F040F8022084F83D002068816844F235
:10111000070291438160211D206801F07DF822685B
:1011200090689169166A2B68AF69034340F20330F7
:10113000814341EA0721A868EF6908434FF6FC4163
:101140008843E96840EA0720014328692F6A0001C3
:1011500040EA0730084369686D6926F0AA0646EA46
:101160000515294393602268906154F8460B01628B
:10117000012004F81F09E0752076E0762077A0753D
:101180000020B7E7F0B587B0044614216846FFF7A2
:101190001CF9584923680024574802250126574A5C
:1011A0008B4223D1544914310B6843F001030B6087
:1011B000096801F001010591016841F00101016038
:1011C0000068694600F0010005904FF440700090FF
:1011D000CDE90154CDE903461046FFF715FA002288
:1011E00011461B20FFF77CFB1B205BE04249444F6C
:1011F0001031B3F1804F23D0424EB34256D10A682A
:1012000042F004020A60096801F0040105910168D6
:1012100041F0020101600068694600F0020005909B
:10122000C0200090CDE901543846CDE90345FFF7D1
:10123000EBF9002211461E20FFF752FB1E2031E081
:101240000B6843F001030B60096801F0010105918F
:10125000016841F001010160016801F0010105919F
:10126000016841F0020101600068694600F0020077
:10127000059020200090CDE90154CDE903461046A9
:10128000FFF7C2F908200090CDE90154CDE90346EB
:1012900069463846FFF7B8F9002211461C20FFF7CF
:1012A0001FFB1C20FFF70EFB07B0F0BD164EB3422C
:1012B000FAD10B6843F008030B60096801F00801DC
:1012C0000591016841F0010101600068694600F084
:1012D0000100059003200090CDE901541046CDE9AE
:1012E0000345FFF791F9002211463220FFF7F8FA83
:1012F0003220D7E7000001403038024000000240B1
:101300000004024000080040000C004070B590F856
:101310003E60044690F83F5090F8423090F84320E9
:10132000022021B1042914D0012E25D11EE0012E66
:1013300022D1012B20D184F83E0084F84200012202
:101340000021206800F0B4FF2068C16841F002016C
:101350002FE0012D10D1012A0ED184F83F0084F82E
:1013600043000421206800F0A3FF1EE0012D03D1FB
:10137000012B01D1012A01D0012070BD84F83E006B
:1013800084F83F0084F8420084F8430001220021E1
:10139000206800F08DFF01220421206800F088FF02
:1013A0002068C16841F00201C1602068C16841F055
:1013B0000401C1602068016841F001010160002062
:1013C00070BD00001C4A0168914209D1496A1B4A5C
:1013D000916009B29181CB1701EB93718910D18192
:1013E0000168B1F1804F09D1496A154A916009B28B
:1013F0009181CB1701EB93718910D181114A01685A
:10140000914209D1496A104A916009B29181CB1782
:1014100001EB93718910D18100680C49884209D190
:10142000406A0B49886000B28881C21700EB927055
:101430008010C8817047000000000140BC030020FC
:10144000D403002000080040EC030020000C004002
:101450000404002070B50446006801694FF00005DF
:10146000C943890715D4C168C943890711D4E91E46
:10147000016101202077206880698007204602D022
:10148000FFF7A0FF04E000F011F9204600F0A3F9F7
:10149000257720680169C943490717D4C168C94342
:1014A000490713D46FF004010161022020772068FE
:1014B000806910F4407F204602D0FFF783FF04E0EC
:1014C00000F0F4F8204600F086F9257720680169DD
:1014D000C943090716D4C168C943090712D46FF07C
:1014E00008010161042020772068C0698007204638
:1014F00002D0FFF767FF04E000F0D8F8204600F0C4
:101500006AF9257720680169C943C90617D4C168FB
:10151000C943C90613D46FF0100101610820207778
:101520002068C06910F4407F204602D0FFF74AFFD0
:1015300004E000F0BBF8204600F04DF92577206864
:101540000169C943C90708D1C168C943C90704D1A2
:10155000891E0161204600F03FF920680169C943F6
:10156000090609D4C168C943090605D46FF0800192
:1015700001612046FFF79CFC20680169C9434906C8
:1015800009D4C168C943490605D46FF0400101611F
:10159000204600F022F920680169C94389060BD46E
:1015A000C168C943890607D46FF020010161204654
:1015B000BDE87040FFF77DBC70BD0000F0B587B09E
:1015C000044614216846FEF700FF314B21680024D1
:1015D00030480225304A0326304F994221D1016814
:1015E00041F001010160016801F00101059101680C
:1015F00041F0020101600068694600F002000590B8
:10160000C0200090CDE901541046CDE90345FEF716
:10161000FBFF0096CDE9015469463846CDE9034504
:1016200011E01F4B994212D1016841F001010160A4
:101630000068694600F0010005900C200090CDE99B
:101640000154104621E0FEF7DFFF07B0F0BD154A58
:10165000914209D1016841F002010160006800F087
:101660000200059090150BE00F4A9142EDD1016800
:1016700041F002010160006800F002000590501581
:101680000090CDE9015469463846CDE90346DAE7D2
:1016900000040040303802400000024000040240D4
:1016A000004001400044014000480140704770B5CF
:1016B000044690F83C0000260D4601280FD001207A
:1016C00084F83C006AB1042A1DD0082A2FD00C2AC5
:1016D0003FD00126002084F83C00304670BD022037
:1016E00070BD206800F004FE2068816941F00801A7
:1016F00081612068816921F004018161206881692C
:101700002A69114311E0206800F01AFE20688169FF
:1017100041F4006181612068816921F48061816107
:10172000206881692A6941EA02218161D2E7206843
:1017300000F032FE2068C16941F00801C1612068F3
:10174000C16921F00401C1612068C1692A6911439E
:1017500011E0206800F04CFE2068C16941F400618E
:10176000C1612068C16921F48061C1612068C169DB
:101770002A6941EA0221C161ACE710B5040003D037
:1017800094F83D0010B107E0012010BD002084F85E
:101790003C00204600F01EF8022084F83D00211D88
:1017A000206800F039FD012084F8460084F83E00EE
:1017B00084F83F0084F8400084F8410084F8420037
:1017C00084F8430084F8440084F8450084F83D0020
:1017D000002010BD704770477047704770477047D2
:1017E000F8B5016804460868CA684B6910F00F0F25
:1017F0004FF0000559D003F0010602F4907737430B
:1018000065D0C10705D0D10503D5216C41F0010198
:101810002164410705D5D90703D0216C41F00201AD
:101820002164810705D5D90703D0216C41F004015B
:101830002164010707D502F02001314303D0216C58
:1018400041F008012164216C00293AD0800604D5BA
:10185000900602D5204600F0C0FE20684069216C49
:10186000C0F38010090700D460B3204600F080FE6A
:1018700020684069400621D52068143050E8001FD8
:1018800021F0400140E80012002AF5D1A06BA8B178
:101890006C490165A06BFEF75BFE002811D0A06BC0
:1018A000016D01B0BDE8F040084783060FD59306EF
:1018B0000DD52046BDE8F84000F08FBE2046FFF76A
:1018C0008EFFF8BD2046FFF78AFF2564F8BD266B22
:1018D0002023012E79D1C60677D5D60675D508689E
:1018E000486800904869400640D5A16B0868406888
:1018F0000004000CEAD0A28D8242E7D9E085C869D5
:10190000B0F5807F2DD020680C3050E8001F21F406
:10191000807140E80012002AF5D12068143050E8A8
:10192000001F21F0010140E80012002AF5D12068D3
:10193000143050E8001F21F0400140E80012002A56
:10194000F5D184F83E30256320680C3050E8001F44
:1019500021F0100140E80012002AF5D1A06BFEF73B
:10196000AEFDA08DE18D401A81B229E0A08DE18D00
:10197000401A81B2E08D0028A8D00029A6D02068A6
:101980000C3050E8002F22F4907240E80026002E20
:10199000F5D12068143050E8002F22F0010240E811
:1019A0000026002EF5D184F83E30256320680C30E7
:1019B00050E8002F22F0100240E80023002BF5D160
:1019C0002046FFF70BFFF8BDFFE705062BD51506F0
:1019D00029D594F83D002128F5D1A068B0F5805FA5
:1019E00001D12069B0B1206A411C216221680078D0
:1019F0004860E08C401E0004000CE084E3D12068C5
:101A0000C16821F08001C1602068C16841F04001D7
:101A1000C160D8E7206A0088C0F308004860206AE7
:101A2000801C2062E5E74006CDD55006CBD5CA68BC
:101A3000204622F04002CA6084F83D3000F0F5F8FC
:101A4000C1E700007B24000870B5040004D094F8BE
:101A50003D00002510B106E0012070BD84F83C5027
:101A6000204600F023F8242084F83D002068C16857
:101A700021F40051C160204600F010FE2068016989
:101A800021F4904101612068416921F02A014161FE
:101A90002068C16841F40051C1602564202084F8A9
:101AA0003D0084F83E00002070BD000010B586B0F7
:101AB000044614216846FEF788FC184920688842CD
:101AC00029D117480021026842F020020260006814
:101AD00000F02000059012481438026842F001021C
:101AE0000260006800F0010005904FF4C0500090C3
:101AF0000220CDE9010103200390082004906946EB
:101B00000848FEF781FD002211464720FEF7E8FE57
:101B10004720FEF7D7FE06B010BD000000140140BC
:101B2000443802400000024090F83E30202B0ED195
:101B300059B152B190F83C30012B08D0012380F804
:101B40003C300023036300F02FBE012070470220C9
:101B50007047000010B5054800F0C8FFBDE8104010
:101B60004FF400510248FEF73FBE0000B0020020D3
:101B700000080240704700002DE9F843044690F841
:101B80003D001F4616460D4620284CD1C5B1BEB1BA
:101B900094F83C00012846D0012084F83C004FF026
:101BA0000008C4F84080212084F83D00FEF72AFE9A
:101BB000A6848146E684A068B0F5805F03D004E087
:101BC0000120BDE8F883206928B12E465FF00005AA
:101BD00084F83C800EE00026FAE78021204600F0E1
:101BE0002DFEA0B9AEB116F8010B21684860E08C5B
:101BF000401EE084E08C4B464FF000020097002826
:101C0000EBD14FF04001204600F018FE30B1032028
:101C1000D7E735F8020BC0F30800E6E7202084F888
:101C20003D000020CDE70220CBE77047FEE7000033
:101C30002DE9F04786B014216846FEF7C6FB2C4814
:101C40000024016841F004010160016801F0040111
:101C50000591016841F080010160016801F0800197
:101C60000591016841F001010160016801F0010185
:101C70000591016841F0020101600068DFF874809D
:101C800000F002004FF460450590002229464046CE
:101C9000FEF7B2FDDFF8609048F2104600223146B0
:101CA0004846FEF7A9FDDFF854A04FF23447002262
:101CB00039465046FEF7A0FD00950125CDE90154B7
:101CC000694640460394FEF79FFC0096CDE9015417
:101CD000694648460394FEF797FC0097CDE9015406
:101CE000694650460394FEF78FFC06B0BDE8F087C6
:101CF0003038024000080240000002400004024068
:101D000010B588B01C216846FEF75FFB15481449E2
:101D1000002401606321C0E9011440F2E731C0E909
:101D200003148461FFF704F908B172B6FEE70D48A9
:101D3000FFF723FD08B172B6FEE76020CDE900048D
:101D400002940022694607480494FFF7B0FC08B1EA
:101D500072B6FEE70348FFF731FC08B010BD000083
:101D600000440140DC01002010B588B01C21684609
:101D7000FEF72BFB15481449002401606321C0E9DC
:101D8000011440F2E731C0E903148461FFF7D0F891
:101D900008B172B6FEE70D48FFF7EFFC08B172B666
:101DA000FEE76020CDE9000402940022694607485E
:101DB0000494FFF77CFC08B172B6FEE70348FFF716
:101DC000FDFB08B010BD00000048014024020020C7
:101DD00010B58CB024216846FEF7F7FA00241748A6
:101DE000099415490A94C0E900144FF6FF71C0E93F
:101DF00002410461446184610320009001AA022031
:101E0000012182E81300CDE90440CDE906146946BA
:101E10000A480894FFF764F908B172B6FEE709941E
:101E200009A906480A94FFF745F8002801D072B6C0
:101E3000FEE70CB010BD0000000001402C000020A7
:101E400010B58CB024216846FEF7BFFA002415486F
:101E500009944FF080410A94C0E90014611EC0E962
:101E60000241046184610320009001AA0220012143
:101E700082E81300CDE90440CDE90614694609481B
:101E80000894FFF72DF908B172B6FEE7099409A985
:101E900004480A94FFF70EF8002801D072B6FEE756
:101EA0000CB010BD7400002010B58EB00024079453
:101EB000089409940A940B941C2168460C94FEF72C
:101EC00084FA2A48284901606321C0E9011440F2DC
:101ED000E731C0E903148461FFF72AF808B172B64C
:101EE000FEE74FF48050079007A92048FFF78AF8D3
:101EF00008B172B6FEE71D48FFF73FFC08B172B6A5
:101F0000FEE70B940BA919480C94FEF7D3FF08B118
:101F100072B6FEE76020CDE9000402940022694613
:101F200012480494FFF7C3FB08B172B6FEE704221F
:101F300069460E48FFF7BBFB08B172B6FEE7082200
:101F400069460A48FFF7B3FB08B172B6FEE70C22F8
:101F500069460648FFF7ABFB08B172B6FEE70348D7
:101F6000FFF72CFB0EB010BD00040040BC000020A9
:101F700010B58CB024216846FEF727FA00241648D5
:101F8000099414490A94C0E900144FF6FF71C0E99E
:101F90000241046184610320009001AA0220012112
:101FA00082E81300CDE90440CDE9061469460A48E9
:101FB0000894FFF795F808B172B6FEE7099409A9ED
:101FC00005480A94FEF776FF002801D072B6FEE7B6
:101FD0000CB010BD000800400401002010B58CB00A
:101FE00024216846FEF7F1F90024154809941349A5
:101FF0000A94C0E90014611EC0E9024104618461D1
:102000000320CDE900040120CDE902040494CDE9C8
:102010000540079469460A480894FFF761F808B13B
:1020200072B6FEE7099409A905480A94FEF742FF33
:10203000002801D072B6FEE70CB010BD000C0040C5
:102040004C01002010B58CB000240794089409942A
:102050001C2168460A94FEF7B8F91E481C49016025
:102060006321C0E9011440F2E731C0E9031484613F
:10207000FEF75EFF08B172B6FEE74FF4805007909E
:1020800007A91448FEF7BEFF08B172B6FEE7114873
:10209000FFF773FB08B172B6FEE76020CDE90004DC
:1020A0000294002269460B480494FFF700FB08B134
:1020B00072B6FEE7042269460648FFF7F8FA08B14F
:1020C00072B6FEE70348FFF779FA0CB010BD0000C6
:1020D0000040014094010020FEE7FEE77047704792
:1020E00017490868401C0860B0F5FA7F25D11548EB
:1020F000B0F90E20B0F91030D31A5B0043610282B0
:102100001830B0F90E20B0F91030D31A5B004361DB
:1021100002821830B0F90E20B0F91030D31A5B00EB
:10212000436102821830B0F90E20B0F91030D31A92
:102130005B004361028200200860FEF769BB00007B
:1021400008000020BC03002030B593B03021684661
:10215000FEF73BF914210CA8FEF737F91C480024C0
:10216000016841F080510160006800F080501190DA
:102170001848016841F4404101600068022500F4FC
:102180004040119001200390102004900095069586
:102190000820CDE907406420CDE9090504200B9013
:1021A0006846FEF7BBFC08B172B6FEE70F20CDE92A
:1021B0000C054FF48050CDE90E4003210CA810947B
:1021C000FEF7C0FB002801D072B6FEE713B030BDA9
:1021D00040380240007000400248016841F470013C
:1021E0000160704788ED00E00148FFF733B9000057
:1021F0002C0000200148FFF72DB9000074000020DA
:102200000148FFF727B90000040100200148FFF74B
:1022100021B900004C010020F0B502681D4B1E4C96
:102220009F031E4D1E4E984207D0B84205D0A042D3
:1022300003D0A84201D0B04204D122F0700C4A6809
:1022400042EA0C02984210D0B8420ED0A0420CD004
:10225000A8420AD0B04208D0124CA04205D0124C7D
:10226000A04202D0114CA04203D122F44074CA68AB
:1022700022434C6922F08002224302608A68C262D3
:102280000A688262984201D10969016301214161B2
:10229000F0BD0000000001400004004000080040C4
:1022A000000C004000400140004401400048014053
:1022B00010B501F01F030121046A99408C430462A8
:1022C000016A9A401143016210BD10B5846842EA68
:1022D000032224F47F440A432243826010BD8268B3
:1022E00022F070020A4342F007018160704700004B
:1022F00030B5026A22F001020262026A4368846910
:1023000024F073050C682C4322F002058A682A43E6
:102310000A4DA8420BD122F00805CA6823F4407385
:102320002A434D6922F004021D438B692B4343600D
:10233000846149684163026230BD000000000140D1
:1023400030B5026A22F010020262026A43688469B0
:102350000D6824F4E64444EA05248D6822F0200246
:1023600042EA05120B4DA8420ED1CD6822F0800240
:1023700042EA05124D6923F4406343EA85038D69FF
:1023800022F0400243EA8503436084614968816327
:10239000026230BD0000014030B5026A22F4807252
:1023A0000262036A4268C46923F4007324F073056F
:1023B0000C682C438D6843EA05230C4DA8420ED1CE
:1023C000CD6823F4006343EA05234D6922F44052AB
:1023D00042EA05128D6923F4806342EA05124260E5
:1023E000C4614968C163036230BD00000000014060
:1023F00030B5026A22F480520262046A4268C369FC
:102400000D6823F4E64343EA05238D6824F4005461
:1024100044EA0534064DA84204D14D6922F48042B5
:1024200042EA85124260C36149680164046230BDBA
:102430000000014010B5036A046A24F0010404623C
:10244000846924F0F00444EA021423F00A020A43E7
:102450008461026210BD10B5036A23F010030362A9
:102460008369046A23F4704343EA023224F0A00330
:1024700043EA01118261016210BD10B5806B002139
:10248000C185C184FFF7ABF910BD70B5846B2068BE
:10249000406994F83D10C0F3C0100025212904D1F3
:1024A00018B1E584204600F08AF82068406994F865
:1024B0003E10C0F38010222904D118B1E5852046D2
:1024C00000F056F8206C40F0100020642046FFF722
:1024D00086F970BD10B50146806B09680968C905A9
:1024E0002FD40021C18501680C3151E8002F22F45E
:1024F000807241E80023002BF5D10168143151E8C6
:10250000002F22F0010241E80023002BF5D10168E1
:10251000143151E8002F22F0400241E80023002B43
:10252000F5D1202180F83E10016B012909D1016805
:102530000C3151E8002F22F0100241E80023002B5B
:10254000F5D1016B012902D0FFF704FB10BD818D8D
:10255000FFF744F910BD10B5806B016B012902D063
:10256000FFF708FB10BD818D4908FFF737F910BD53
:1025700001680C3151E8002F22F4907241E80023E9
:10258000002BF5D10168143151E8002F22F001022F
:1025900041E80023002BF5D1016B012909D1016825
:1025A0000C3151E8002F22F0100241E80023002BEB
:1025B000F5D1202180F83E100021016370470168A9
:1025C0000C3151E8002F22F0C00241E80023002B1B
:1025D000F5D1202180F83D10704708B590F83E10E5
:1025E000222901D0022008BD82684FF480539A420C
:1025F00001D1016921B1816A9A421BD04AB10AE036
:102600000268816A5268C2F308020A80816A891CE2
:1026100008E0026972B10268526802F07F020A7033
:10262000816A491C8162C18D491E0904090CC1855A
:1026300003D019E002685268F1E70168CA6822F025
:102640002002CA600168CA6822F48072CA60016808
:102650004A6922F001024A61202180F83E10016B94
:10266000012903D0FFF776FA002008BD002101639D
:1026700001680C3151E8002F22F0100241E80023DC
:10268000002BF5D101680A68D20602D50A684968AC
:102690000091818DFFF7A2F8E6E7000070B50446CF
:1026A00000680169E26821F4405111430161216928
:1026B000A068E26908436169114308432168CA6858
:1026C00049F20C639A430243CA6020684169A269D7
:1026D00021F440711143416131492068884202D0A0
:1026E0003049884202D1FEF7D7F901E0FEF7C4F97C
:1026F000E2690023192164253226B2F5004F626891
:1027000028D0A0FB0101930F9200FDF7B5FD014613
:10271000B0FBF5F06FF01802504301EB800006EBC0
:102720000010B0FBF5F000F0F002B1FBF5F002EBA9
:102730000012B1FBF5F06FF01803584301EB800075
:1027400006EB0010B0FBF5F000F00F00216810441C
:10275000886070BDA0FB010192185B41FDF78CFD04
:102760000146B0FBF5F00201B1FBF5F06FF0180384
:10277000584301EB800006EBC000B0FBF5F000F021
:10278000F80002EB4002B1FBF5F0584301EB80008A
:1027900006EBC000B0FBF5F000F00700D6E7000044
:1027A000001001400014014038B581628285002587
:1027B000134604460564222084F83E00A26B1C48A0
:1027C000D063A26B1B481064A26B1B48D064A06B43
:1027D0000A4605652168A06B091DFDF7CBFE206840
:1027E00001684068009084F83C50206948B1206836
:1027F0000C3050E8001F41F4807140E80012002ABC
:10280000F5D12068143050E8001F41F0010140E884
:102810000012002AF5D12068143050E8001F41F062
:10282000400140E80012002AF5D1002038BD000028
:10283000D5240008572500088B2400082DE9F04115
:10284000984617460E460446069D27E0681C25D08C
:102850002DB1FDF7D7FFA0EB0800A8421ED92068D4
:102860000C3050E8001F21F4D07140E80012002A1B
:10287000F5D12068143050E8001F21F0010140E834
:102880000012002AF5D1202084F83D0084F83E0093
:10289000002084F83C000320BDE8F0812068006837
:1028A00036EA000004D00020B842CFD00020F3E781
:1028B0000120F9E70148FEF793BF00006C020020F9
:1028C000FEE70907090E002804DB00F1E02080F88C
:1028D0000014704700F00F0000F1E02080F8141D94
:1028E00070473C210298FEF711BD034610B5002049
:1028F000024604E09C5C521C2044C0B2D2B28A4220
:10290000F8D310BD01494860704700000000002066
:102910001FB5FDF785FFFFF717FCFFF789F9FFF7F4
:1029200057FAFFF78DFAFFF7BFFAFFF721FBFFF722
:1029300055FBFFF787FBFFF7E3F9FFF715FA584858
:1029400056490C2201604FF4E13141600021816061
:10295000C160C0E904128161C161FFF775F808B177
:1029600072B6FEE750494F484F4A086048604F48EA
:102970008860C86003200874042048744C49916141
:10298000D161108403021046464A43844948022418
:102990008D1402604260454A8260C2600122027466
:1029A00044748161C1610584550345843C4D4248AE
:1029B000D83D05604560414D8560C5600274447432
:1029C0008161C1619103018449004184344C3C48D8
:1029D000903C0460483444603A4C84603A4CC46093
:1029E00002744274394A8261C261038441842D4871
:1029F00037499038CDE902013648D0E90412CDE9D3
:102A000000120FC8FFF76DFF2648E1044838CDE9F2
:102A100002013148D0E90412CDE900120FC8FFF7D6
:102A200060FF20482D494830CDE902012C48D0E90B
:102A30000412CDE900120FC8FFF753FF19482949C6
:102A40009030CDE902012848D0E90412CDE9001206
:102A50000FC8FFF746FF144818221E492430FDF71F
:102A600082FC144818221C492430FDF77CFC1248D3
:102A700018221B492430FDF776FC114818221A4908
:102A80002430FDF770FC0648FFF73CFF00F0F6F835
:102A900000F0FEF86420FDF7A5FDF9E70014014001
:102AA0006C020020BC000020CC020020000400408A
:102AB00000040240080300204403002000400140BD
:102AC0008003002000440140004801400000024013
:102AD00000000140BC030020D40300200008004097
:102AE000EC030020000C0040040400202DE9F84312
:102AF0005A4E5B4F5B4D814600244FF00508385D10
:102B0000A52810D1381941785A290CD1817801298A
:102B10000AD002290DD0032916D0042942D0052954
:102B20004DD0062960D08EE0012189F819104EA001
:102B30003CE04EA00A2300680090032269466868C2
:102B4000FFF71AF802212AE049A109680091C1782B
:102B50000906B0F8031049BA00D5314389F80410CA
:102B6000427989F8182081790906C18849BA07D5C0
:102B70000A04017A407A42EA01210143091C05E076
:102B8000027A0904407A41EA02210143C9F800109F
:102B90000A23032269466868FEF7EEFF032189F8DD
:102BA000191050E0042189F8191032A00A23006896
:102BB0000090032269466868FEF7DEFF43E02EA11D
:102BC00009680091C17842790906B0F8031080794C
:102BD00049BA4FEA014141EA022141EA000100D528
:102BE000091CC9F8001026E023A109680091C178EA
:102BF0000906B0F8031049BA00D53143C9F80010EE
:102C000041790906B0F8051049BA00D53143C9F831
:102C10000010C1790906B0F8071049BA00D5314350
:102C2000C9F80010417AB0F80900090640BA00D589
:102C30003043C9F800000A23032269466868FEF79A
:102C40009BFF89F81980641C102CFFF658AF686848
:102C5000BDE8F84310220249FEF766BF0000FFFFFF
:102C60001C00002000000020A55A0100A55A020007
:102C7000A55A0300A55A0400A55A050003481022CE
:102C800001494068FEF750BF1C00002000000020F2
:102C90001FB50BA30FCB8DE80F0010216846FFF77F
:102CA00024FE8DF80F000A480A2310226946406866
:102CB000FEF762FF10B1002004B010BD0120FBE759
:102CC000A55A010000000000000000000000000004
:102CD000000000204FF04070E1EE100A7047000045
:102CE00000000000000001020304060708090000BC
:102CF0000000010203040000182D0008000000205D
:102D00001C000000D4010008342D00081C00002025
:102D1000640A0000F001000800000000000000004C
:102D20000000000001000000100000000000000092
:042D30000024F40087
:040000050800019955
:00000001FF
